:060000000A128A11FC2F18
:100F5A0081308316031387008312031387014230FB
:100F6A008312031387001A30F2005E30F1006E30EC
:100F7A00F000F00BBE2FF10BBE2FF20BBE2F0000BC
:100F8A0044308312031387000630F2001330F10055
:100F9A00AD30F000F00BCF2FF10BCF2FF20BCF2F8C
:100FAA00D62F18308312031387001A30F2005E30EE
:100FBA00F1006E30F000F00BE02FF10BE02FF20B96
:100FCA00E02F000028308312031387000630F20056
:100FDA001330F100AD30F000F00BF12FF10BF12FCF
:100FEA00F20BF12FF82FB42F0A128A11002883016D
:060FFA000A128A11AD2F5E
:02400E00713D02
:00000001FF
